{
  "abi": [
    {
      "anonymous": false,
      "inputs": [
        {
          "indexed": false,
          "internalType": "uint256",
          "name": "_amount",
          "type": "uint256"
        },
        {
          "indexed": false,
          "internalType": "uint16",
          "name": "_duration",
          "type": "uint16"
        },
        {
          "indexed": false,
          "internalType": "address",
          "name": "_staker",
          "type": "address"
        }
      ],
      "name": "staked",
      "type": "event"
    },
    {
      "anonymous": false,
      "inputs": [
        {
          "indexed": false,
          "internalType": "uint256",
          "name": "_amount",
          "type": "uint256"
        },
        {
          "indexed": false,
          "internalType": "uint256",
          "name": "_reward",
          "type": "uint256"
        },
        {
          "indexed": false,
          "internalType": "uint16",
          "name": "_duration",
          "type": "uint16"
        },
        {
          "indexed": false,
          "internalType": "address",
          "name": "_staker",
          "type": "address"
        }
      ],
      "name": "unstaked",
      "type": "event"
    },
    {
      "inputs": [
        {
          "internalType": "address",
          "name": "staker_",
          "type": "address"
        }
      ],
      "name": "getStakedAmount",
      "outputs": [
        {
          "internalType": "uint256",
          "name": "stakedAmount",
          "type": "uint256"
        }
      ],
      "stateMutability": "view",
      "type": "function"
    },
    {
      "inputs": [
        {
          "internalType": "address",
          "name": "staker_",
          "type": "address"
        }
      ],
      "name": "getUnlockDate2",
      "outputs": [
        {
          "internalType": "uint256",
          "name": "unlockDate_",
          "type": "uint256"
        }
      ],
      "stateMutability": "view",
      "type": "function"
    },
    {
      "inputs": [
        {
          "internalType": "uint256",
          "name": "amount_",
          "type": "uint256"
        },
        {
          "internalType": "uint16",
          "name": "period_",
          "type": "uint16"
        },
        {
          "internalType": "address",
          "name": "currency_",
          "type": "address"
        }
      ],
      "name": "stake",
      "outputs": [
        {
          "internalType": "bool",
          "name": "",
          "type": "bool"
        }
      ],
      "stateMutability": "nonpayable",
      "type": "function"
    },
    {
      "inputs": [
        {
          "internalType": "address",
          "name": "staker_",
          "type": "address"
        },
        {
          "internalType": "address",
          "name": "currency_",
          "type": "address"
        }
      ],
      "name": "unstake",
      "outputs": [
        {
          "internalType": "bool",
          "name": "",
          "type": "bool"
        }
      ],
      "stateMutability": "nonpayable",
      "type": "function"
    }
  ],
  "bytecode": {
    "object": "0x6080604052600080546001600160a01b031990811673e962c58acdf0b69f33390a783ad1231994aa460b1790915560018054821673ebfa8d804f193678d42039c83f5a12cfeaf929451790556002805490911673cd0d7ec19055f5c080d20d3fe1798d7321716f4017905534801561007657600080fd5b5061084d806100866000396000f3fe608060405234801561001057600080fd5b506004361061004c5760003560e01c80632ef8db31146100515780634da6a55614610079578063f21f3c08146100b0578063fac2637e146100c3575b600080fd5b61006461005f3660046106f3565b6100ef565b60405190151581526020015b60405180910390f35b6100a2610087366004610738565b6001600160a01b031660009081526003602052604090205490565b604051908152602001610070565b6100646100be36600461075a565b6103ba565b6100a26100d1366004610738565b6001600160a01b031660009081526003602052604090206002015490565b600080546001600160a01b038381169116148061011957506001546001600160a01b038381169116145b8061013157506002546001600160a01b038381169116145b6101795760405162461bcd60e51b8152602060048201526014602482015273556e737570706f727465642063757272656e637960601b60448201526064015b60405180910390fd5b600084116101ba5760405162461bcd60e51b815260206004820152600e60248201526d73656e6420302020746f6b656e7360901b6044820152606401610170565b8261ffff16601e14806101d157508261ffff16605a145b806101e157508261ffff1661016d145b6102215760405162461bcd60e51b81526020600482015260116024820152701c195c9a5bd9081a5cc81a5b9d985b1a59607a1b6044820152606401610170565b6040516323b872dd60e01b8152336004820152306024820152604481018590526001600160a01b038316906323b872dd906064016020604051808303816000875af1158015610274573d6000803e3d6000fd5b505050506040513d601f19601f82011682018060405250810190610298919061078d565b6102d65760405162461bcd60e51b815260206004820152600f60248201526e151c985b9cd9995c8819985a5b1959608a1b6044820152606401610170565b60008361ffff16601e036102f8576102f14262278d006107c5565b9050610322565b8361ffff16605a03610311576102f1426276a7006107c5565b61031f426301e133806107c5565b90505b604080516060808201835287825261ffff87811660208085018281528587018881523360008181526003855289902088518155925160018401805461ffff191691909716179095555160029091015585518b8152908101919091529384015290917fcdec0c8e1b3ecf9e13eb841374431ef6fedab783159d59bb4c5861128f934695910160405180910390a150600195945050505050565b60045460009060ff16156104105760405162461bcd60e51b815260206004820152601760248201527f5265656e7472616e742063616c6c2064657465637465640000000000000000006044820152606401610170565b6004805460ff1916600117905561042683610625565b61047d5760405162461bcd60e51b815260206004820152602260248201527f63616e206e6f7420756e7374616b65206265666f726520756e6c6f636b206461604482015261746560f01b6064820152608401610170565b6001600160a01b03831660009081526003602052604081206001810154905461ffff909116916104ad868461065a565b6001600160a01b0380881660009081526003602052604081206001015492935061ffff9092169190871663a9059cbb896104e7818961065a565b6104f190886107c5565b6040516001600160e01b031960e085901b1681526001600160a01b03909216600483015260248201526044016020604051808303816000875af115801561053c573d6000803e3d6000fd5b505050506040513d601f19601f82011682018060405250810190610560919061078d565b9050806105a75760405162461bcd60e51b81526020600482015260156024820152741d5b9cdd185ad9481d5b9cdd58d8d95cdcd99d5b1b605a1b6044820152606401610170565b6001600160a01b038816600081815260036020908152604080832092909255815187815290810186905261ffff8516818301526060810192909252517ffb642999f85dbc98709742b7b749855f302edf88ecc8a88766e3b0ea7251acb79181900360800190a150506004805460ff1916905550600195945050505050565b6001600160a01b0381166000908152600360205260408120600201544281116106515750600192915050565b50600092915050565b6001600160a01b03821660009081526003602052604081205461ffff8316601e0361069957606461068c8260196107de565b61069691906107f5565b91505b8261ffff16605a036106bf5760646106b28260326107de565b6106bc91906107f5565b91505b8261ffff1661016d036106d0578091505b5092915050565b80356001600160a01b03811681146106ee57600080fd5b919050565b60008060006060848603121561070857600080fd5b83359250602084013561ffff8116811461072157600080fd5b915061072f604085016106d7565b90509250925092565b60006020828403121561074a57600080fd5b610753826106d7565b9392505050565b6000806040838503121561076d57600080fd5b610776836106d7565b9150610784602084016106d7565b90509250929050565b60006020828403121561079f57600080fd5b8151801515811461075357600080fd5b634e487b7160e01b600052601160045260246000fd5b808201808211156107d8576107d86107af565b92915050565b80820281158282048414176107d8576107d86107af565b60008261081257634e487b7160e01b600052601260045260246000fd5b50049056fea2646970667358221220ada72117539f889365b624100cabe5ac39ccf47fc0e9a0335737208a32bd5c5b64736f6c63430008150033",
    "linkReferences": {}
  },
  "methodIdentifiers": {
    "getStakedAmount(address)": "4da6a556",
    "getUnlockDate2(address)": "fac2637e",
    "stake(uint256,uint16,address)": "2ef8db31",
    "unstake(address,address)": "f21f3c08"
  },
  "id": 27
}