{
  "abi": [
    {
      "inputs": [],
      "stateMutability": "nonpayable",
      "type": "constructor"
    },
    {
      "anonymous": false,
      "inputs": [
        {
          "indexed": false,
          "internalType": "uint256",
          "name": "capaignId_",
          "type": "uint256"
        },
        {
          "indexed": false,
          "internalType": "uint256",
          "name": "goal_",
          "type": "uint256"
        },
        {
          "indexed": false,
          "internalType": "uint256",
          "name": "currentMoney_",
          "type": "uint256"
        }
      ],
      "name": "campaignHasFinished",
      "type": "event"
    },
    {
      "inputs": [],
      "name": "balanceof",
      "outputs": [
        {
          "internalType": "uint256",
          "name": "s",
          "type": "uint256"
        }
      ],
      "stateMutability": "view",
      "type": "function"
    },
    {
      "inputs": [],
      "name": "cid",
      "outputs": [
        {
          "internalType": "uint256",
          "name": "",
          "type": "uint256"
        }
      ],
      "stateMutability": "view",
      "type": "function"
    },
    {
      "inputs": [
        {
          "internalType": "uint256",
          "name": "cid_",
          "type": "uint256"
        }
      ],
      "name": "contrubuteCampaign",
      "outputs": [],
      "stateMutability": "payable",
      "type": "function"
    },
    {
      "inputs": [
        {
          "internalType": "string",
          "name": "name_",
          "type": "string"
        },
        {
          "internalType": "address",
          "name": "creator_",
          "type": "address"
        },
        {
          "internalType": "uint256",
          "name": "goal_",
          "type": "uint256"
        },
        {
          "internalType": "uint256",
          "name": "maximumMoney_",
          "type": "uint256"
        },
        {
          "internalType": "uint256",
          "name": "duration_",
          "type": "uint256"
        }
      ],
      "name": "createCampaign",
      "outputs": [],
      "stateMutability": "nonpayable",
      "type": "function"
    },
    {
      "inputs": [
        {
          "internalType": "uint256",
          "name": "cid_",
          "type": "uint256"
        }
      ],
      "name": "finishCampaign",
      "outputs": [],
      "stateMutability": "nonpayable",
      "type": "function"
    },
    {
      "inputs": [
        {
          "internalType": "uint256",
          "name": "cid_",
          "type": "uint256"
        }
      ],
      "name": "getContrubutedAmount",
      "outputs": [
        {
          "internalType": "uint256",
          "name": "u",
          "type": "uint256"
        }
      ],
      "stateMutability": "view",
      "type": "function"
    },
    {
      "inputs": [
        {
          "internalType": "uint256",
          "name": "cid_",
          "type": "uint256"
        }
      ],
      "name": "getMoney",
      "outputs": [
        {
          "internalType": "uint256",
          "name": "s",
          "type": "uint256"
        }
      ],
      "stateMutability": "view",
      "type": "function"
    },
    {
      "inputs": [
        {
          "internalType": "uint256",
          "name": "cid_",
          "type": "uint256"
        }
      ],
      "name": "getStatus",
      "outputs": [
        {
          "internalType": "bool",
          "name": "b",
          "type": "bool"
        }
      ],
      "stateMutability": "view",
      "type": "function"
    },
    {
      "inputs": [
        {
          "internalType": "uint256",
          "name": "cid_",
          "type": "uint256"
        }
      ],
      "name": "getname",
      "outputs": [
        {
          "internalType": "string",
          "name": "s",
          "type": "string"
        }
      ],
      "stateMutability": "view",
      "type": "function"
    },
    {
      "inputs": [
        {
          "internalType": "uint256",
          "name": "",
          "type": "uint256"
        }
      ],
      "name": "idToCrowd",
      "outputs": [
        {
          "internalType": "bool",
          "name": "isActive",
          "type": "bool"
        },
        {
          "internalType": "address",
          "name": "creator",
          "type": "address"
        },
        {
          "internalType": "string",
          "name": "name",
          "type": "string"
        },
        {
          "internalType": "uint256",
          "name": "goal",
          "type": "uint256"
        },
        {
          "internalType": "uint256",
          "name": "maximumMoney",
          "type": "uint256"
        },
        {
          "internalType": "uint256",
          "name": "duration",
          "type": "uint256"
        },
        {
          "internalType": "uint256",
          "name": "currentMoney",
          "type": "uint256"
        }
      ],
      "stateMutability": "view",
      "type": "function"
    },
    {
      "inputs": [],
      "name": "owner",
      "outputs": [
        {
          "internalType": "address",
          "name": "",
          "type": "address"
        }
      ],
      "stateMutability": "view",
      "type": "function"
    },
    {
      "inputs": [
        {
          "internalType": "uint256",
          "name": "cid_",
          "type": "uint256"
        }
      ],
      "name": "paybackCampaign",
      "outputs": [],
      "stateMutability": "nonpayable",
      "type": "function"
    }
  ],
  "bytecode": {
    "object": "0x608060405234801561001057600080fd5b50600180546001600160a01b03191633179055610d7b806100326000396000f3fe6080604052600436106100a75760003560e01c80638c73e424116100645780638c73e424146101a45780638da5cb5b146101dc578063912f3b35146102145780639cf3a71514610234578063aa3ec0a914610267578063d23556971461027d57600080fd5b80630202ace1146100ac5780632980a5d3146100e25780633262fd9a146100ff5780635545db0d1461012f5780635c622a0e14610151578063630baa9a14610191575b600080fd5b3480156100b857600080fd5b506100cc6100c7366004610a2b565b61029d565b6040516100d99190610a8a565b60405180910390f35b3480156100ee57600080fd5b50475b6040519081526020016100d9565b34801561010b57600080fd5b506100f161011a366004610a2b565b60009081526002602052604090206005015490565b34801561013b57600080fd5b5061014f61014a366004610a2b565b610342565b005b34801561015d57600080fd5b5061018161016c366004610a2b565b60009081526002602052604090205460ff1690565b60405190151581526020016100d9565b61014f61019f366004610a2b565b61051f565b3480156101b057600080fd5b506100f16101bf366004610a2b565b600090815260036020908152604080832033845290915290205490565b3480156101e857600080fd5b506001546101fc906001600160a01b031681565b6040516001600160a01b0390911681526020016100d9565b34801561022057600080fd5b5061014f61022f366004610a2b565b610619565b34801561024057600080fd5b5061025461024f366004610a2b565b610821565b6040516100d99796959493929190610aa4565b34801561027357600080fd5b506100f160005481565b34801561028957600080fd5b5061014f610298366004610af6565b6108f2565b60008181526002602052604090206001018054606091906102bd90610b9f565b80601f01602080910402602001604051908101604052809291908181526020018280546102e990610b9f565b80156103365780601f1061030b57610100808354040283529160200191610336565b820191906000526020600020905b81548152906001019060200180831161031957829003601f168201915b50505050509050919050565b600180546001600160a01b0319163317905560008181526002602052604090205460ff166103b05760405162461bcd60e51b815260206004820152601660248201527543726f776446756e6420697320696e6163746976652160501b60448201526064015b60405180910390fd5b600081815260026020526040902060040154421161041f5760405162461bcd60e51b815260206004820152602660248201527f43726f776466756e64206475726174696f6e206973206e6f742066696e6973686044820152651959081e595d60d21b60648201526084016103a7565b6000818152600260208190526040909120805460ff1916815590810154600590910154106104c357600081815260026020526040808220805460059091015491516101009091046001600160a01b0316919060006040518083038185875af1925050503d80600081146104ae576040519150601f19603f3d011682016040523d82523d6000602084013e6104b3565b606091505b50509050806104c157600080fd5b505b60008181526002602081815260409283902091820154600590920154835185815291820192909252918201527fbe5ea695dfc327023b03902be79f17065ce9d3893de2b1f08cf1b4bad468faf19060600160405180910390a150565b6000341161055d5760405162461bcd60e51b815260206004820152600b60248201526a455448206973207a65726f60a81b60448201526064016103a7565b60008181526002602052604090205460ff166105b45760405162461bcd60e51b815260206004820152601660248201527543726f776446756e6420697320696e6163746976652160501b60448201526064016103a7565b600081815260026020526040812060050180543492906105d5908490610bef565b90915550506000818152600360209081526040808320338452825280832034905583835260049091528120805460019290610611908490610bef565b909155505050565b60008181526002602052604090205460ff16156106785760405162461bcd60e51b815260206004820152601c60248201527f43726f776446756e6420697320616c726561647920616374697665210000000060448201526064016103a7565b600081815260036020908152604080832033845290915281205490036106e05760405162461bcd60e51b815260206004820152601760248201527f596f752068617665206e6f20636f6e747269627574652100000000000000000060448201526064016103a7565b6000818152600260208190526040909120908101546005909101541061076e5760405162461bcd60e51b815260206004820152603760248201527f476f616c20686173206265656e20726561636865642c20796f752063616e206e60448201527f6f742074616b6520796f7572206d6f6e6579206261636b00000000000000000060648201526084016103a7565b600081815260036020908152604080832033808552925280832080549084905590519092919083908381818185875af1925050503d80600081146107ce576040519150601f19603f3d011682016040523d82523d6000602084013e6107d3565b606091505b505090508061081c5760405162461bcd60e51b81526020600482015260156024820152741cd95b99081a5cc81d5b9cdd58d8d95cdcd99d5b1b605a1b60448201526064016103a7565b505050565b6002602052600090815260409020805460018201805460ff8316936101009093046001600160a01b031692919061085790610b9f565b80601f016020809104026020016040519081016040528092919081815260200182805461088390610b9f565b80156108d05780601f106108a5576101008083540402835291602001916108d0565b820191906000526020600020905b8154815290600101906020018083116108b357829003601f168201915b5050505050908060020154908060030154908060040154908060050154905087565b600180546001600160a01b031916331781556040805160e0810182529182526001600160a01b0386166020808401919091528151601f89018290048202810182018352888152600093928301918a908a908190840183828082843760009201919091525050509082525060208101869052604081018590526060016109774285610bef565b815260006020918201819052805481526002825260409081902083518154938501516001600160a81b0319909416901515610100600160a81b031916176101006001600160a01b0390941693909302929092178255820151919250829160018201906109e39082610c6c565b50606082015160028201556080820151600382015560a0820151600482015560c090910151600590910155600080549080610a1d83610d2c565b919050555050505050505050565b600060208284031215610a3d57600080fd5b5035919050565b6000815180845260005b81811015610a6a57602081850181015186830182015201610a4e565b506000602082860101526020601f19601f83011685010191505092915050565b602081526000610a9d6020830184610a44565b9392505050565b87151581526001600160a01b038716602082015260e060408201819052600090610ad090830188610a44565b90508560608301528460808301528360a08301528260c083015298975050505050505050565b60008060008060008060a08789031215610b0f57600080fd5b863567ffffffffffffffff80821115610b2757600080fd5b818901915089601f830112610b3b57600080fd5b813581811115610b4a57600080fd5b8a6020828501011115610b5c57600080fd5b602092830198509650508701356001600160a01b0381168114610b7e57600080fd5b95989497509495604081013595506060810135946080909101359350915050565b600181811c90821680610bb357607f821691505b602082108103610bd357634e487b7160e01b600052602260045260246000fd5b50919050565b634e487b7160e01b600052601160045260246000fd5b80820180821115610c0257610c02610bd9565b92915050565b634e487b7160e01b600052604160045260246000fd5b601f82111561081c57600081815260208120601f850160051c81016020861015610c455750805b601f850160051c820191505b81811015610c6457828155600101610c51565b505050505050565b815167ffffffffffffffff811115610c8657610c86610c08565b610c9a81610c948454610b9f565b84610c1e565b602080601f831160018114610ccf5760008415610cb75750858301515b600019600386901b1c1916600185901b178555610c64565b600085815260208120601f198616915b82811015610cfe57888601518255948401946001909101908401610cdf565b5085821015610d1c5787850151600019600388901b60f8161c191681555b5050505050600190811b01905550565b600060018201610d3e57610d3e610bd9565b506001019056fea264697066735822122085eb855568f73e445a6be3007ce5db0339d512e5cffc9eaddd3473cd1def265564736f6c63430008150033",
    "linkReferences": {}
  },
  "methodIdentifiers": {
    "balanceof()": "2980a5d3",
    "cid()": "aa3ec0a9",
    "contrubuteCampaign(uint256)": "630baa9a",
    "createCampaign(string,address,uint256,uint256,uint256)": "d2355697",
    "finishCampaign(uint256)": "5545db0d",
    "getContrubutedAmount(uint256)": "8c73e424",
    "getMoney(uint256)": "3262fd9a",
    "getStatus(uint256)": "5c622a0e",
    "getname(uint256)": "0202ace1",
    "idToCrowd(uint256)": "9cf3a715",
    "owner()": "8da5cb5b",
    "paybackCampaign(uint256)": "912f3b35"
  },
  "id": 25
}