{
  "abi": [
    {
      "inputs": [
        {
          "internalType": "address",
          "name": "staker_",
          "type": "address"
        },
        {
          "internalType": "uint16",
          "name": "period_",
          "type": "uint16"
        }
      ],
      "name": "callculateStake",
      "outputs": [
        {
          "internalType": "uint256",
          "name": "r",
          "type": "uint256"
        }
      ],
      "stateMutability": "view",
      "type": "function"
    }
  ],
  "bytecode": {
    "object": "0x60806040524260015534801561001457600080fd5b50610212806100246000396000f3fe608060405234801561001057600080fd5b506004361061002b5760003560e01c80637691b12d14610030575b600080fd5b61004361003e36600461012a565b610055565b60405190815260200160405180910390f35b600080546040516326d352ab60e11b81526001600160a01b03858116600483015283921690634da6a55690602401602060405180830381865afa1580156100a0573d6000803e3d6000fd5b505050506040513d601f19601f820116820180604052508101906100c49190610176565b90508261ffff16601e036100ec5760646100df82601961018f565b6100e991906101ba565b91505b8261ffff16605a0361011257606461010582603261018f565b61010f91906101ba565b91505b8261ffff1661016d03610123578091505b5092915050565b6000806040838503121561013d57600080fd5b82356001600160a01b038116811461015457600080fd5b9150602083013561ffff8116811461016b57600080fd5b809150509250929050565b60006020828403121561018857600080fd5b5051919050565b80820281158282048414176101b457634e487b7160e01b600052601160045260246000fd5b92915050565b6000826101d757634e487b7160e01b600052601260045260246000fd5b50049056fea26469706673582212207de07fadb15f9c1e2514bd69a061f5ba6a3cf289482480336ae2056e43f5949064736f6c63430008150033",
    "linkReferences": {}
  },
  "methodIdentifiers": {
    "callculateStake(address,uint16)": "7691b12d"
  },
  "id": 28
}